:10008000000090E6197403F0000090E61BF00000F9
:1000900090E61374A0F0000090E61574E0F0000004
:1000A00090E6047480F000007484F000007488F01E
:1000B0000000E4F090E602F0A3F0000090E609F002
:1000C000000090E6267402F00000E4A3F000009027
:1000D000E6497484F00000F0000090E6197411F015
:0900E000000090E61B740DF022F3
:1000E90090E60174A3F0000090E60B7403F012008F
:1000F9008075B201D28090E680E0E4F0000090E6DD
:100109008D7401F090E6A1E020E1F990E780E02408
:0B011900FF928012008080E480FE2234
:03000000020124D6
:0C012400787FE4F6D8FD7581070200E941
:00000001FF
